{
  "contractName": "CasinoFactory",
  "abi": [
    {
      "anonymous": false,
      "inputs": [
        {
          "indexed": false,
          "internalType": "address",
          "name": "contractAddress",
          "type": "address"
        }
      ],
      "name": "ContractCreated",
      "type": "event"
    },
    {
      "inputs": [],
      "name": "myContractAddress",
      "outputs": [
        {
          "internalType": "address",
          "name": "",
          "type": "address"
        }
      ],
      "stateMutability": "view",
      "type": "function",
      "constant": true
    },
    {
      "inputs": [],
      "name": "createContract",
      "outputs": [],
      "stateMutability": "nonpayable",
      "type": "function"
    },
    {
      "inputs": [],
      "name": "getContractAddress",
      "outputs": [
        {
          "internalType": "address",
          "name": "",
          "type": "address"
        }
      ],
      "stateMutability": "view",
      "type": "function",
      "constant": true
    }
  ],
  "bytecode": "0x608060405234801561001057600080fd5b50610c5b806100206000396000f3fe608060405234801561001057600080fd5b50600436106100415760003560e01c806332a2c5d014610046578063412a5a6d1461007a578063b12f97bb14610084575b600080fd5b61004e6100b8565b604051808273ffffffffffffffffffffffffffffffffffffffff16815260200191505060405180910390f35b6100826100e1565b005b61008c61019e565b604051808273ffffffffffffffffffffffffffffffffffffffff16815260200191505060405180910390f35b60008060009054906101000a900473ffffffffffffffffffffffffffffffffffffffff16905090565b60006040516100ef906101c2565b604051809103906000f08015801561010b573d6000803e3d6000fd5b5090507fcf78cf0d6f3d8371e1075c69c492ab4ec5d8cf23a1a239b6a51a1d00be7ca31281604051808273ffffffffffffffffffffffffffffffffffffffff16815260200191505060405180910390a1806000806101000a81548173ffffffffffffffffffffffffffffffffffffffff021916908373ffffffffffffffffffffffffffffffffffffffff16021790555050565b60008054906101000a900473ffffffffffffffffffffffffffffffffffffffff1681565b610a56806101d08339019056fe6080604052600a6000556000600160006101000a81548167ffffffffffffffff021916908367ffffffffffffffff1602179055506000600160086101000a81548167ffffffffffffffff021916908367ffffffffffffffff1602179055506000600160106101000a81548167ffffffffffffffff021916908367ffffffffffffffff1602179055506000600160186101000a81548167ffffffffffffffff021916908367ffffffffffffffff160217905550735ab8c62a01b00f57f6c35c58ffe7b64777749159600260006101000a81548173ffffffffffffffffffffffffffffffffffffffff021916908373ffffffffffffffffffffffffffffffffffffffff160217905550600060055534801561011757600080fd5b5061092f806101276000396000f3fe60806040526004361061004a5760003560e01c8063541db7c51461004f578063c35ff2de1461008a578063d0febe4c1461010b578063eb1dcbd614610115578063f8b2cb4f14610150575b600080fd5b34801561005b57600080fd5b506100886004803603602081101561007257600080fd5b81019080803590602001909291905050506101b5565b005b34801561009657600080fd5b50610109600480360360808110156100ad57600080fd5b81019080803567ffffffffffffffff169060200190929190803567ffffffffffffffff169060200190929190803567ffffffffffffffff169060200190929190803567ffffffffffffffff16906020019092919050505061033e565b005b610113610668565b005b34801561012157600080fd5b5061014e6004803603602081101561013857600080fd5b81019080803590602001909291905050506106cd565b005b34801561015c57600080fd5b5061019f6004803603602081101561017357600080fd5b81019080803573ffffffffffffffffffffffffffffffffffffffff16906020019092919050505061077d565b6040518082815260200191505060405180910390f35b600054811115610210576040517f08c379a000000000000000000000000000000000000000000000000000000000815260040180806020018281038252602781526020018061089f6027913960400191505060405180910390fd5b6002600460003373ffffffffffffffffffffffffffffffffffffffff1673ffffffffffffffffffffffffffffffffffffffff168152602001908152602001600020540143116102aa576040517f08c379a00000000000000000000000000000000000000000000000000000000081526004018080602001828103825260348152602001806108c66034913960400191505060405180910390fd5b43600460003373ffffffffffffffffffffffffffffffffffffffff1673ffffffffffffffffffffffffffffffffffffffff1681526020019081526020016000208190555080600360003373ffffffffffffffffffffffffffffffffffffffff1673ffffffffffffffffffffffffffffffffffffffff1681526020019081526020016000206000828254019250508190555050565b600360003373ffffffffffffffffffffffffffffffffffffffff1673ffffffffffffffffffffffffffffffffffffffff168152602001908152602001600020548183858701010167ffffffffffffffff1611156103e6576040517f08c379a00000000000000000000000000000000000000000000000000000000081526004018080602001828103825260248152602001806108406024913960400191505060405180910390fd5b83600160008282829054906101000a900467ffffffffffffffff160192506101000a81548167ffffffffffffffff021916908367ffffffffffffffff16021790555082600160088282829054906101000a900467ffffffffffffffff160192506101000a81548167ffffffffffffffff021916908367ffffffffffffffff16021790555081600160108282829054906101000a900467ffffffffffffffff160192506101000a81548167ffffffffffffffff021916908367ffffffffffffffff16021790555080600160188282829054906101000a900467ffffffffffffffff160192506101000a81548167ffffffffffffffff021916908367ffffffffffffffff1602179055508082848601010167ffffffffffffffff16600360003373ffffffffffffffffffffffffffffffffffffffff1673ffffffffffffffffffffffffffffffffffffffff1681526020019081526020016000206000828254039250508190555060008061055860036107c6565b14610564576000610567565b60015b60ff16600286020267ffffffffffffffff1681019050600061058a6103e86107c6565b14610596576000610599565b60015b60ff166101f485020267ffffffffffffffff168101905060006105bc60156107c6565b146105c85760006105cb565b60015b60ff16600f84020267ffffffffffffffff168101905060006105ee613a986107c6565b146105fa5760006105fd565b60015b60ff1661271083020267ffffffffffffffff168101905080600360003373ffffffffffffffffffffffffffffffffffffffff1673ffffffffffffffffffffffffffffffffffffffff168152602001908152602001600020600082825401925050819055505050505050565b670de0b6b3a7640000341461067c57600080fd5b612710600360003373ffffffffffffffffffffffffffffffffffffffff1673ffffffffffffffffffffffffffffffffffffffff16815260200190815260200160002060008282540192505081905550565b600260009054906101000a900473ffffffffffffffffffffffffffffffffffffffff1673ffffffffffffffffffffffffffffffffffffffff163373ffffffffffffffffffffffffffffffffffffffff1614610773576040517f08c379a000000000000000000000000000000000000000000000000000000000815260040180806020018281038252603b815260200180610864603b913960400191505060405180910390fd5b8060008190555050565b6000600360008373ffffffffffffffffffffffffffffffffffffffff1673ffffffffffffffffffffffffffffffffffffffff168152602001908152602001600020549050919050565b6000600560008154809291906001019190505550814233600554604051602001808481526020018373ffffffffffffffffffffffffffffffffffffffff1660601b815260140182815260200193505050506040516020818303038152906040528051906020012060001c8161083757fe5b06905091905056fe596f7520646f6e2774206861766520656e6f75676820746f6b656e7320746f20706c61794f6e6c792061646d696e2063616e206368616e676520746865206e756d626572206f66206672656520746f6b656e7320796f752063616e20676574596f752063616e277420726571756573742074686174206d756368206672656520746f6b656e7357616974206120666577206d6f726520626c6f636b73206265666f726520636f6c6c656374696e67206672656520746f6b656e73a2646970667358221220ff402f6df8bbdc3becd1c5ad541ce6ef51a967a33cabd127401f426dfa00f5ee64736f6c63430007060033a26469706673582212208ec1e4b37733845068b57edc2010afa3b22833526f11bc08f03007f03d75783964736f6c63430007060033",
  "immutableReferences": {},
  "source": "// SPDX-License-Identifier: MIT\n\npragma solidity ^0.7.6;\n\ncontract CasinoFactory  {\n    event ContractCreated(address contractAddress);\n    address public myContractAddress;\n\n    function createContract() public{\n        Casino newContract = new Casino();\n        emit ContractCreated(address(newContract));\n        myContractAddress = address(newContract);\n    }\n\n    function getContractAddress() public view returns(address){\n        return myContractAddress;\n    }\n}\n\n\ncontract Casino{\n\n    uint256 maxFreeTokens = 10;\n\n    // Keep track of the tokens spent at each game\n    uint64 roulette = 0;\n    uint64 slotMachine = 0;\n    uint64 blackjack = 0;\n    uint64 poker = 0;\n\n    address admin = 0x5aB8C62A01b00f57f6C35c58fFe7B64777749159;\n    mapping(address => uint256) balances;\n    mapping(address => uint256) lastFreeTokenRequest;\n\n\n    function changeMaxFreeTokens(uint256 newValue) external\n    {\n        require(msg.sender == admin, \"Only admin can change the number of free tokens you can get\");\n        maxFreeTokens = newValue;\n    }\n\n    function requestFreeTokens(uint256 numberOfTokensRequested) external {\n        require(numberOfTokensRequested <= maxFreeTokens, \"You can't request that much free tokens\");\n\n        require(block.number > lastFreeTokenRequest[msg.sender] + 2,\n        \"Wait a few more blocks before collecting free tokens\");\n\n        lastFreeTokenRequest[msg.sender] = block.number;\n\n        balances[msg.sender] += numberOfTokensRequested;\n    }\n\n    function playTokens(uint64 tokensForRoulette, uint64 tokensForSlotMachine, uint64 tokensForBlackjack, uint64 tokensForPoker) external\n    {\n        require(tokensForRoulette + tokensForSlotMachine + tokensForBlackjack + tokensForPoker <= balances[msg.sender],\n        \"You don't have enough tokens to play\");\n\n        // Increase the analytics variables\n        roulette += tokensForRoulette;\n        slotMachine += tokensForSlotMachine;\n        blackjack += tokensForBlackjack;\n        poker += tokensForPoker;\n\n        balances[msg.sender] -= tokensForRoulette + tokensForSlotMachine + tokensForBlackjack + tokensForPoker;\n\n        uint256 earnedTokens = 0;\n\n        // Play the tokens at the chosen games\n\n        // Roulette\n        earnedTokens += tokensForRoulette*2*(randMod(3) == 0 ? 1 : 0);\n        \n        // Slot\n        earnedTokens += tokensForSlotMachine * 500 * (randMod(1000) == 0 ? 1 : 0);\n\n        // Blackjack\n        earnedTokens += tokensForBlackjack * 15 * (randMod(21) == 0 ? 1 : 0);\n\n        // Poker\n        earnedTokens += tokensForPoker * 10000 * (randMod(15000) == 0 ? 1 : 0);\n\n        balances[msg.sender] += earnedTokens;\n    }\n\n    // Initializing the state variable\n    uint randNonce = 0;\n \n    // Defining a function to generate\n    // a random number\n    function randMod(uint _modulus) internal returns(uint)\n    {\n        // increase nonce\n        randNonce++;\n        return uint(keccak256(abi.encodePacked(block.timestamp,msg.sender,randNonce))) % _modulus;\n    }\n\n    function getBalance(address user) external view returns(uint256){\n        return balances[user];\n    }\n\n    function buyTokens() payable external {\n        // deposit sizes are restricted to 1 ether\n        require(msg.value == 1 ether);\n\n        balances[msg.sender] += 10000 ;\n    }\n\n}",
  "sourcePath": "/home/dovahshan/DVC_blockchain/contracts/casino.sol",
  "compiler": {
    "name": "solc",
    "version": "0.7.6+commit.7338295f.Emscripten.clang"
  },
  "schemaVersion": "3.4.13",
  "updatedAt": "2023-03-11T20:03:48.789Z",
  "networkType": "ethereum",
  "devdoc": {
    "kind": "dev",
    "methods": {},
    "version": 1
  },
  "userdoc": {
    "kind": "user",
    "methods": {},
    "version": 1
  }
}