{
  "contractName": "Challenge1",
  "abi": [
    {
      "inputs": [],
      "name": "me",
      "outputs": [
        {
          "internalType": "address",
          "name": "",
          "type": "address"
        }
      ],
      "stateMutability": "view",
      "type": "function",
      "constant": true
    },
    {
      "inputs": [],
      "name": "initWallet",
      "outputs": [],
      "stateMutability": "nonpayable",
      "type": "function"
    },
    {
      "inputs": [],
      "name": "deposit",
      "outputs": [],
      "stateMutability": "payable",
      "type": "function",
      "payable": true
    },
    {
      "inputs": [
        {
          "internalType": "uint256",
          "name": "amount",
          "type": "uint256"
        }
      ],
      "name": "withdraw",
      "outputs": [],
      "stateMutability": "nonpayable",
      "type": "function"
    },
    {
      "inputs": [
        {
          "internalType": "address",
          "name": "to",
          "type": "address"
        }
      ],
      "name": "migrateTo",
      "outputs": [],
      "stateMutability": "nonpayable",
      "type": "function"
    },
    {
      "inputs": [],
      "name": "getBalance",
      "outputs": [
        {
          "internalType": "uint256",
          "name": "",
          "type": "uint256"
        }
      ],
      "stateMutability": "view",
      "type": "function",
      "constant": true
    }
  ],
  "bytecode": "0x608060405234801561001057600080fd5b5061046a806100206000396000f3fe6080604052600436106100555760003560e01c806312065fe01461005a5780632e1a7d4d146100855780633e326048146100c05780634ddaf8f2146100d7578063cb12b48f14610128578063d0e30db014610169575b600080fd5b34801561006657600080fd5b5061006f610173565b6040518082815260200191505060405180910390f35b34801561009157600080fd5b506100be600480360360208110156100a857600080fd5b810190808035906020019092919050505061018c565b005b3480156100cc57600080fd5b506100d561026f565b005b3480156100e357600080fd5b50610126600480360360208110156100fa57600080fd5b81019080803573ffffffffffffffffffffffffffffffffffffffff1690602001909291905050506102b1565b005b34801561013457600080fd5b5061013d61039f565b604051808273ffffffffffffffffffffffffffffffffffffffff16815260200191505060405180910390f35b6101716103c3565b005b6000670de0b6b3a7640000478161018657fe5b04905090565b600160003373ffffffffffffffffffffffffffffffffffffffff1673ffffffffffffffffffffffffffffffffffffffff168152602001908152602001600020548111156101d857600080fd5b3373ffffffffffffffffffffffffffffffffffffffff166108fc829081150290604051600060405180830381858888f1935050505015801561021e573d6000803e3d6000fd5b5080600160003373ffffffffffffffffffffffffffffffffffffffff1673ffffffffffffffffffffffffffffffffffffffff1681526020019081526020016000206000828254039250508190555050565b336000806101000a81548173ffffffffffffffffffffffffffffffffffffffff021916908373ffffffffffffffffffffffffffffffffffffffff160217905550565b60008054906101000a900473ffffffffffffffffffffffffffffffffffffffff1673ffffffffffffffffffffffffffffffffffffffff163373ffffffffffffffffffffffffffffffffffffffff1614610355576040517f08c379a00000000000000000000000000000000000000000000000000000000081526004018080602001828103825260228152602001806104136022913960400191505060405180910390fd5b8073ffffffffffffffffffffffffffffffffffffffff166108fc479081150290604051600060405180830381858888f1935050505015801561039b573d6000803e3d6000fd5b5050565b60008054906101000a900473ffffffffffffffffffffffffffffffffffffffff1681565b34600160003373ffffffffffffffffffffffffffffffffffffffff1673ffffffffffffffffffffffffffffffffffffffff1681526020019081526020016000206000828254019250508190555056fe4f6e6c79206d652063616e20776974686472617720616c6c207468652066756e6473a2646970667358221220ee09aa585cf594a75ed3e3646f11b256bbf00b17cdf20ff5f22a4d4db777959f64736f6c63430007060033",
  "immutableReferences": {},
  "source": "// SPDX-License-Identifier: MIT\npragma solidity ^0.7.6;\n \n \n\ncontract Challenge1 {\n\n    address public me;\n    mapping(address => uint256) balances;\n\n//constructor\n    function initWallet() public {\n        me = msg.sender;\n    }\n\n    function deposit() external payable {\n        balances[msg.sender] += msg.value;\n    }\n    \n    function withdraw(uint256 amount) public {\n        require(amount <= balances[msg.sender]);\n        payable(msg.sender).transfer(amount);\n        balances[msg.sender] -= amount;\n    }\n//If there is an emergency, i'm protected \\o/\n    function migrateTo(address to) public {\n        require(msg.sender == me, \"Only me can withdraw all the funds\");\n        payable(to).transfer(address(this).balance);\n    }\n//getBalance returns the balance of the contract, it is always nice to check my fortune \n    function getBalance() public view returns (uint) \n    {\n        return (address(this).balance / 1 ether);\n    }\n\n}\n",
  "sourcePath": "/home/dovahshan/DVC_blockchain/deploy/contracts/challenge1.sol",
  "compiler": {
    "name": "solc",
    "version": "0.7.6+commit.7338295f.Emscripten.clang"
  },
  "schemaVersion": "3.4.11",
  "updatedAt": "2023-03-11T00:44:44.551Z",
  "networkType": "ethereum",
  "devdoc": {
    "kind": "dev",
    "methods": {},
    "version": 1
  },
  "userdoc": {
    "kind": "user",
    "methods": {},
    "version": 1
  }
}