{
  "contractName": "Contract1Factory",
  "abi": [
    {
      "anonymous": false,
      "inputs": [
        {
          "indexed": false,
          "internalType": "address",
          "name": "contractAddress",
          "type": "address"
        }
      ],
      "name": "ContractCreated",
      "type": "event"
    },
    {
      "inputs": [],
      "name": "myContractAddress",
      "outputs": [
        {
          "internalType": "address",
          "name": "",
          "type": "address"
        }
      ],
      "stateMutability": "view",
      "type": "function"
    },
    {
      "inputs": [],
      "name": "createContract",
      "outputs": [],
      "stateMutability": "nonpayable",
      "type": "function"
    },
    {
      "inputs": [],
      "name": "getContractAddress",
      "outputs": [
        {
          "internalType": "address",
          "name": "",
          "type": "address"
        }
      ],
      "stateMutability": "view",
      "type": "function"
    }
  ],
  "bytecode": "0x608060405234801561001057600080fd5b506108ab806100206000396000f3fe608060405234801561001057600080fd5b50600436106100415760003560e01c806332a2c5d014610046578063412a5a6d14610064578063b12f97bb1461006e575b600080fd5b61004e61008c565b60405161005b91906101ce565b60405180910390f35b61006c6100b5565b005b61007661015c565b60405161008391906101ce565b60405180910390f35b60008060009054906101000a900473ffffffffffffffffffffffffffffffffffffffff16905090565b60006040516100c390610180565b604051809103906000f0801580156100df573d6000803e3d6000fd5b5090507fcf78cf0d6f3d8371e1075c69c492ab4ec5d8cf23a1a239b6a51a1d00be7ca3128160405161011191906101ce565b60405180910390a1806000806101000a81548173ffffffffffffffffffffffffffffffffffffffff021916908373ffffffffffffffffffffffffffffffffffffffff16021790555050565b60008054906101000a900473ffffffffffffffffffffffffffffffffffffffff1681565b61068c806101ea83390190565b600073ffffffffffffffffffffffffffffffffffffffff82169050919050565b60006101b88261018d565b9050919050565b6101c8816101ad565b82525050565b60006020820190506101e360008301846101bf565b9291505056fe608060405234801561001057600080fd5b5033600160006101000a81548173ffffffffffffffffffffffffffffffffffffffff021916908373ffffffffffffffffffffffffffffffffffffffff16021790555061062b806100616000396000f3fe6080604052600436106100705760003560e01c80633fa4f2451161004e5780633fa4f245146100e05780634ddaf8f21461010b578063cb12b48f14610134578063d0e30db01461015f57610070565b806312065fe0146100755780632e1a7d4d146100a05780633e326048146100c9575b600080fd5b34801561008157600080fd5b5061008a610169565b60405161009791906103c1565b60405180910390f35b3480156100ac57600080fd5b506100c760048036038101906100c2919061040d565b610171565b005b3480156100d557600080fd5b506100de61025d565b005b3480156100ec57600080fd5b506100f56102a0565b60405161010291906103c1565b60405180910390f35b34801561011757600080fd5b50610132600480360381019061012d9190610498565b6102a6565b005b34801561014057600080fd5b50610149610380565b60405161015691906104d4565b60405180910390f35b6101676103a6565b005b600047905090565b600260003373ffffffffffffffffffffffffffffffffffffffff1673ffffffffffffffffffffffffffffffffffffffff168152602001908152602001600020548111156101bd57600080fd5b3373ffffffffffffffffffffffffffffffffffffffff166108fc829081150290604051600060405180830381858888f19350505050158015610203573d6000803e3d6000fd5b5080600260003373ffffffffffffffffffffffffffffffffffffffff1673ffffffffffffffffffffffffffffffffffffffff1681526020019081526020016000206000828254610253919061051e565b9250508190555050565b33600160006101000a81548173ffffffffffffffffffffffffffffffffffffffff021916908373ffffffffffffffffffffffffffffffffffffffff160217905550565b60005481565b600160009054906101000a900473ffffffffffffffffffffffffffffffffffffffff1673ffffffffffffffffffffffffffffffffffffffff163373ffffffffffffffffffffffffffffffffffffffff1614610336576040517f08c379a000000000000000000000000000000000000000000000000000000000815260040161032d906105d5565b60405180910390fd5b8073ffffffffffffffffffffffffffffffffffffffff166108fc479081150290604051600060405180830381858888f1935050505015801561037c573d6000803e3d6000fd5b5050565b600160009054906101000a900473ffffffffffffffffffffffffffffffffffffffff1681565b565b6000819050919050565b6103bb816103a8565b82525050565b60006020820190506103d660008301846103b2565b92915050565b600080fd5b6103ea816103a8565b81146103f557600080fd5b50565b600081359050610407816103e1565b92915050565b600060208284031215610423576104226103dc565b5b6000610431848285016103f8565b91505092915050565b600073ffffffffffffffffffffffffffffffffffffffff82169050919050565b60006104658261043a565b9050919050565b6104758161045a565b811461048057600080fd5b50565b6000813590506104928161046c565b92915050565b6000602082840312156104ae576104ad6103dc565b5b60006104bc84828501610483565b91505092915050565b6104ce8161045a565b82525050565b60006020820190506104e960008301846104c5565b92915050565b7f4e487b7100000000000000000000000000000000000000000000000000000000600052601160045260246000fd5b6000610529826103a8565b9150610534836103a8565b925082820390508181111561054c5761054b6104ef565b5b92915050565b600082825260208201905092915050565b7f4f6e6c7920746865206d652063616e20776974686472617720616c6c2074686560008201527f2066756e64730000000000000000000000000000000000000000000000000000602082015250565b60006105bf602683610552565b91506105ca82610563565b604082019050919050565b600060208201905081810360008301526105ee816105b2565b905091905056fea26469706673582212203051f7d6a11e55918da635c150d5b3c99db2cd7f8c919b28690de6e01e71845e64736f6c63430008110033a264697066735822122055d80724428e4835f5db80e170c5a890d08f96ec678fc2ba68aa2b887bd18aea64736f6c63430008110033",
  "immutableReferences": {},
  "source": "// SPDX-License-Identifier: MIT\npragma solidity >=0.4.22 <0.9.0;\n \n\ncontract Contract1Factory  {\n    event ContractCreated(address contractAddress);\n    address public myContractAddress;\n\n    function createContract() public{\n        Challenge1 newContract = new Challenge1();\n        emit ContractCreated(address(newContract));\n        myContractAddress = address(newContract);\n    }\n\n    function getContractAddress() public view returns(address){\n        return myContractAddress;\n    }\n}\n\ncontract Challenge1 {\n\n    uint public value;\n    address public me;\n\n\n    constructor () {\n        me = msg.sender;\n    }\n\n    \n    mapping(address => uint256) balances;\n\n    function initWallet() external {\n        me = payable(msg.sender);\n    }\n\n    function deposit() public payable {\n    }\n    \n    function withdraw(uint256 amount) public {\n        require(amount <= balances[msg.sender]);\n        payable(msg.sender).transfer(amount);\n        balances[msg.sender] -= amount;\n    }\n\n    function migrateTo(address to) public {\n        require(msg.sender == me, \"Only the me can withdraw all the funds\");\n        payable(to).transfer(address(this).balance);\n    }\n\n    function getBalance() public view returns (uint) \n    {\n        return address(this).balance;\n    }\n\n}\n",
  "sourcePath": "/home/dovahshan/DVC_blockchain/contracts/Chall1Factory.sol",
  "compiler": {
    "name": "solc",
    "version": "0.8.17+commit.8df45f5f.Emscripten.clang"
  },
  "schemaVersion": "3.4.11",
  "updatedAt": "2023-03-08T20:21:47.977Z",
  "devdoc": {
    "kind": "dev",
    "methods": {},
    "version": 1
  },
  "userdoc": {
    "kind": "user",
    "methods": {},
    "version": 1
  }
}