{
  "contractName": "Contract1",
  "abi": [
    {
      "inputs": [],
      "name": "data",
      "outputs": [
        {
          "internalType": "uint256",
          "name": "",
          "type": "uint256"
        }
      ],
      "stateMutability": "view",
      "type": "function"
    },
    {
      "inputs": [
        {
          "internalType": "uint256",
          "name": "_data",
          "type": "uint256"
        }
      ],
      "name": "init",
      "outputs": [],
      "stateMutability": "nonpayable",
      "type": "function"
    },
    {
      "inputs": [],
      "name": "initWallet",
      "outputs": [],
      "stateMutability": "nonpayable",
      "type": "function"
    },
    {
      "inputs": [],
      "name": "deposit",
      "outputs": [],
      "stateMutability": "payable",
      "type": "function"
    },
    {
      "inputs": [
        {
          "internalType": "uint256",
          "name": "amount",
          "type": "uint256"
        }
      ],
      "name": "withdraw",
      "outputs": [],
      "stateMutability": "nonpayable",
      "type": "function"
    },
    {
      "inputs": [
        {
          "internalType": "address payable",
          "name": "to",
          "type": "address"
        }
      ],
      "name": "migrateTo",
      "outputs": [],
      "stateMutability": "nonpayable",
      "type": "function"
    },
    {
      "inputs": [],
      "name": "getBalance",
      "outputs": [
        {
          "internalType": "uint256",
          "name": "",
          "type": "uint256"
        }
      ],
      "stateMutability": "view",
      "type": "function"
    }
  ],
  "bytecode": "0x608060405234801561001057600080fd5b50610594806100206000396000f3fe6080604052600436106100705760003560e01c80634ddaf8f21161004e5780634ddaf8f2146100e057806373d4a13a14610109578063b7b0422d14610134578063d0e30db01461015d57610070565b806312065fe0146100755780632e1a7d4d146100a05780633e326048146100c9575b600080fd5b34801561008157600080fd5b5061008a610167565b60405161009791906103c3565b60405180910390f35b3480156100ac57600080fd5b506100c760048036038101906100c2919061040f565b61016f565b005b3480156100d557600080fd5b506100de61025b565b005b3480156100ec57600080fd5b506101076004803603810190610102919061049a565b61029e565b005b34801561011557600080fd5b5061011e610342565b60405161012b91906103c3565b60405180910390f35b34801561014057600080fd5b5061015b6004803603810190610156919061040f565b610348565b005b610165610352565b005b600047905090565b600260003373ffffffffffffffffffffffffffffffffffffffff1673ffffffffffffffffffffffffffffffffffffffff168152602001908152602001600020548111156101bb57600080fd5b3373ffffffffffffffffffffffffffffffffffffffff166108fc829081150290604051600060405180830381858888f19350505050158015610201573d6000803e3d6000fd5b5080600260003373ffffffffffffffffffffffffffffffffffffffff1673ffffffffffffffffffffffffffffffffffffffff168152602001908152602001600020600082825461025191906104f6565b9250508190555050565b33600160006101000a81548173ffffffffffffffffffffffffffffffffffffffff021916908373ffffffffffffffffffffffffffffffffffffffff160217905550565b3373ffffffffffffffffffffffffffffffffffffffff16600160009054906101000a900473ffffffffffffffffffffffffffffffffffffffff1673ffffffffffffffffffffffffffffffffffffffff16146102f857600080fd5b8073ffffffffffffffffffffffffffffffffffffffff166108fc479081150290604051600060405180830381858888f1935050505015801561033e573d6000803e3d6000fd5b5050565b60005481565b8060008190555050565b34600260003373ffffffffffffffffffffffffffffffffffffffff1673ffffffffffffffffffffffffffffffffffffffff16815260200190815260200160002060008282546103a1919061052a565b92505081905550565b6000819050919050565b6103bd816103aa565b82525050565b60006020820190506103d860008301846103b4565b92915050565b600080fd5b6103ec816103aa565b81146103f757600080fd5b50565b600081359050610409816103e3565b92915050565b600060208284031215610425576104246103de565b5b6000610433848285016103fa565b91505092915050565b600073ffffffffffffffffffffffffffffffffffffffff82169050919050565b60006104678261043c565b9050919050565b6104778161045c565b811461048257600080fd5b50565b6000813590506104948161046e565b92915050565b6000602082840312156104b0576104af6103de565b5b60006104be84828501610485565b91505092915050565b7f4e487b7100000000000000000000000000000000000000000000000000000000600052601160045260246000fd5b6000610501826103aa565b915061050c836103aa565b9250828203905081811115610524576105236104c7565b5b92915050565b6000610535826103aa565b9150610540836103aa565b9250828201905080821115610558576105576104c7565b5b9291505056fea2646970667358221220b019d85a7c03ad704d776cf4f2077bb8d5dcd977a944923aadb0a510f8c9930464736f6c63430008110033",
  "immutableReferences": {},
  "source": "// SPDX-License-Identifier: MIT\npragma solidity >=0.4.22 <0.9.0;\n \n import './CloneFactory.sol';\n\ncontract Contract1Factory is CloneFactory {\n     Contract1[] public children;\n     address masterContract;\n\n     constructor(address _masterContract){\n         masterContract = _masterContract;\n     }\n\n     function createChild(uint data) external{\n        Contract1 child = Contract1(createClone(masterContract));\n        child.init(data);\n        children.push(child);\n     }\n\n     function getChildren() external view returns(Contract1[] memory){\n         return children;\n     }\n}\n\ncontract Contract1 {\n\n    uint public data;\n    \n    // use this function instead of the constructor\n    // since creation will be done using createClone() function\n    function init(uint _data) external {\n        data = _data;\n    }\n\n    address payable me;\n    \n    mapping(address => uint256) balances;\n\n    function initWallet() external {\n        me = payable(msg.sender);\n    }\n\n    function deposit() external payable {\n        balances[msg.sender] += msg.value;\n    }\n    \n    function withdraw(uint256 amount) public {\n        require(amount <= balances[msg.sender]);\n        payable(msg.sender).transfer(amount);\n        balances[msg.sender] -= amount;\n    }\n\n    function migrateTo(address payable to) public {\n        require(me == payable(msg.sender));\n        to.transfer(address(this).balance);\n    }\n    function getBalance() public view returns (uint) \n    {\n        return address(this).balance;\n    }\n\n}\n",
  "sourcePath": "/home/dovahshan/DVC_blockchain/contracts/Contract1Factory.sol",
  "compiler": {
    "name": "solc",
    "version": "0.8.17+commit.8df45f5f.Emscripten.clang"
  },
  "schemaVersion": "3.4.11",
  "updatedAt": "2023-03-08T11:21:51.478Z",
  "devdoc": {
    "kind": "dev",
    "methods": {},
    "version": 1
  },
  "userdoc": {
    "kind": "user",
    "methods": {},
    "version": 1
  }
}