{
  "contractName": "Proxy",
  "abi": [
    {
      "inputs": [
        {
          "internalType": "address",
          "name": "_logic",
          "type": "address"
        }
      ],
      "stateMutability": "payable",
      "type": "constructor"
    },
    {
      "stateMutability": "payable",
      "type": "fallback"
    },
    {
      "stateMutability": "payable",
      "type": "receive"
    },
    {
      "inputs": [],
      "name": "getOwner",
      "outputs": [
        {
          "internalType": "address",
          "name": "",
          "type": "address"
        }
      ],
      "stateMutability": "view",
      "type": "function"
    },
    {
      "inputs": [
        {
          "internalType": "address",
          "name": "newImplementation",
          "type": "address"
        }
      ],
      "name": "upgradeTo",
      "outputs": [],
      "stateMutability": "nonpayable",
      "type": "function"
    }
  ],
  "bytecode": "0x6080604052735ab8c62a01b00f57f6c35c58ffe7b64777749159600160006101000a81548173ffffffffffffffffffffffffffffffffffffffff021916908373ffffffffffffffffffffffffffffffffffffffff16021790555060405161036b38038061036b8339818101604052602081101561007b57600080fd5b8101908080519060200190929190505050806000806101000a81548173ffffffffffffffffffffffffffffffffffffffff021916908373ffffffffffffffffffffffffffffffffffffffff1602179055505061028f806100dc6000396000f3fe60806040526004361061002d5760003560e01c80633659cfe614610046578063893d20e8146100975761003c565b3661003c5761003a6100d8565b005b6100446100d8565b005b34801561005257600080fd5b506100956004803603602081101561006957600080fd5b81019080803573ffffffffffffffffffffffffffffffffffffffff169060200190929190505050610103565b005b3480156100a357600080fd5b506100ac610209565b604051808273ffffffffffffffffffffffffffffffffffffffff16815260200191505060405180910390f35b61010160008054906101000a900473ffffffffffffffffffffffffffffffffffffffff16610233565b565b3373ffffffffffffffffffffffffffffffffffffffff16600160009054906101000a900473ffffffffffffffffffffffffffffffffffffffff1673ffffffffffffffffffffffffffffffffffffffff16146101c6576040517f08c379a00000000000000000000000000000000000000000000000000000000081526004018080602001828103825260208152602001807f4f776e61626c653a2063616c6c6572206973206e6f7420746865206f776e657281525060200191505060405180910390fd5b806000806101000a81548173ffffffffffffffffffffffffffffffffffffffff021916908373ffffffffffffffffffffffffffffffffffffffff16021790555050565b6000600160009054906101000a900473ffffffffffffffffffffffffffffffffffffffff16905090565b3660008037600080366000845af43d6000803e8060008114610254573d6000f35b3d6000fdfea264697066735822122063f99843cb903888426ae09da22829a5de2bb362d76533aa99b900ca6ff9aaf264736f6c63430007060033",
  "immutableReferences": {},
  "source": "// SPDX-License-Identifier: MIT\n\npragma solidity ^0.7.6;\n\n\ncontract Proxy {\n    address _implementation;\n    address _owner = 0x5aB8C62A01b00f57f6C35c58fFe7B64777749159; //0x0000000000000000000000000000000000000000;\n\n    /**\n     * @dev Initializes the upgradeable proxy with an initial implementation specified by `_logic`.\n     *\n     * If `_data` is nonempty, it's used as data in a delegate call to `_logic`. This will typically be an encoded\n     * function call, and allows initializing the storage of the proxy like a Solidity constructor.\n     */\n    constructor(address _logic) payable {\n        _implementation = _logic;\n    }\n\n    function getOwner() external view returns (address) {\n        return _owner;\n    }\n\n    /**\n     * @dev Delegates the current call to `implementation`.\n     *\n     * This function does not return to its internal call site, it will return directly to the external caller.\n     */\n    function _delegate(address implementation) internal virtual {\n        assembly {\n            // Copy msg.data. We take full control of memory in this inline assembly\n            // block because it will not return to Solidity code. We overwrite the\n            // Solidity scratch pad at memory position 0.\n            calldatacopy(0, 0, calldatasize())\n\n            // Call the implementation.\n            // out and outsize are 0 because we don't know the size yet.\n            let result := delegatecall(gas(), implementation, 0, calldatasize(), 0, 0)\n\n            // Copy the returned data.\n            returndatacopy(0, 0, returndatasize())\n\n            switch result\n            // delegatecall returns 0 on error.\n            case 0 {\n                revert(0, returndatasize())\n            }\n            default {\n                return(0, returndatasize())\n            }\n        }\n    }\n\n    /**\n     * @dev Delegates the current call to the address returned by `_implementation()`.\n     *\n     * This function does not return to its internal call site, it will return directly to the external caller.\n     */\n    function _fallback() internal virtual {\n        _delegate(_implementation);\n    }\n\n    /**\n     * @dev Fallback function that delegates calls to the address returned by `_implementation()`. Will run if no other\n     * function in the contract matches the call data.\n     */\n    fallback() external payable virtual {\n        _fallback();\n    }\n\n    /**\n     * @dev Fallback function that delegates calls to the address returned by `_implementation()`. Will run if call data\n     * is empty.\n     */\n    receive() external payable virtual {\n        _fallback();\n    }\n\n\n    /**\n     * @dev Stores a new address in the EIP1967 implementation slot.\n     */\n    function _setImplementation(address newImplementation) private {\n        _implementation = newImplementation;\n    }\n\n    /**\n     * @dev Perform implementation upgrade\n     *\n     * Emits an {Upgraded} event.\n     */\n    function _upgradeTo(address newImplementation) internal {\n        _setImplementation(newImplementation);\n    }\n\n\n    /**\n     * @dev Upgrade the implementation of the proxy to `newImplementation`.\n     *\n     * Calls {_authorizeUpgrade}.\n     *\n     * Emits an {Upgraded} event.\n     */\n    function upgradeTo(address newImplementation) external {\n        require(_owner == msg.sender, \"Ownable: caller is not the owner\");\n        _implementation = newImplementation;\n    }\n}",
  "sourcePath": "/home/dovahshan/DVC_blockchain/deploy/contracts/proxy.sol",
  "compiler": {
    "name": "solc",
    "version": "0.7.6+commit.7338295f.Emscripten.clang"
  },
  "schemaVersion": "3.4.11",
  "updatedAt": "2023-03-09T19:07:32.640Z",
  "devdoc": {
    "kind": "dev",
    "methods": {
      "constructor": {
        "details": "Initializes the upgradeable proxy with an initial implementation specified by `_logic`. If `_data` is nonempty, it's used as data in a delegate call to `_logic`. This will typically be an encoded function call, and allows initializing the storage of the proxy like a Solidity constructor."
      },
      "upgradeTo(address)": {
        "details": "Upgrade the implementation of the proxy to `newImplementation`. Calls {_authorizeUpgrade}. Emits an {Upgraded} event."
      }
    },
    "version": 1
  },
  "userdoc": {
    "kind": "user",
    "methods": {},
    "version": 1
  }
}