{
  "contractName": "MyShinyWallet",
  "abi": [
    {
      "inputs": [],
      "name": "initWallet",
      "outputs": [],
      "stateMutability": "nonpayable",
      "type": "function"
    },
    {
      "inputs": [],
      "name": "deposit",
      "outputs": [],
      "stateMutability": "payable",
      "type": "function"
    },
    {
      "inputs": [
        {
          "internalType": "uint256",
          "name": "amount",
          "type": "uint256"
        }
      ],
      "name": "withdraw",
      "outputs": [],
      "stateMutability": "nonpayable",
      "type": "function"
    },
    {
      "inputs": [
        {
          "internalType": "address payable",
          "name": "to",
          "type": "address"
        }
      ],
      "name": "migrateTo",
      "outputs": [],
      "stateMutability": "nonpayable",
      "type": "function"
    }
  ],
  "bytecode": "0x608060405234801561001057600080fd5b50610567806100206000396000f3fe60806040526004361061003f5760003560e01c80632e1a7d4d146100445780633e3260481461006d5780634ddaf8f214610084578063d0e30db0146100ad575b600080fd5b34801561005057600080fd5b5061006b600480360381019061006691906103b3565b6100b7565b005b34801561007957600080fd5b506100826101a3565b005b34801561009057600080fd5b506100ab60048036038101906100a6919061043e565b6101e5565b005b6100b5610287565b005b600160003373ffffffffffffffffffffffffffffffffffffffff1673ffffffffffffffffffffffffffffffffffffffff1681526020019081526020016000205481111561010357600080fd5b3373ffffffffffffffffffffffffffffffffffffffff166108fc829081150290604051600060405180830381858888f19350505050158015610149573d6000803e3d6000fd5b5080600160003373ffffffffffffffffffffffffffffffffffffffff1673ffffffffffffffffffffffffffffffffffffffff1681526020019081526020016000206000828254610199919061049a565b9250508190555050565b336000806101000a81548173ffffffffffffffffffffffffffffffffffffffff021916908373ffffffffffffffffffffffffffffffffffffffff160217905550565b3373ffffffffffffffffffffffffffffffffffffffff1660008054906101000a900473ffffffffffffffffffffffffffffffffffffffff1673ffffffffffffffffffffffffffffffffffffffff161461023d57600080fd5b8073ffffffffffffffffffffffffffffffffffffffff166108fc479081150290604051600060405180830381858888f19350505050158015610283573d6000803e3d6000fd5b5050565b600160003373ffffffffffffffffffffffffffffffffffffffff1673ffffffffffffffffffffffffffffffffffffffff1681526020019081526020016000205434600160003373ffffffffffffffffffffffffffffffffffffffff1673ffffffffffffffffffffffffffffffffffffffff1681526020019081526020016000205461031291906104ce565b116103205761031f610502565b5b34600160003373ffffffffffffffffffffffffffffffffffffffff1673ffffffffffffffffffffffffffffffffffffffff168152602001908152602001600020600082825461036f91906104ce565b92505081905550565b600080fd5b6000819050919050565b6103908161037d565b811461039b57600080fd5b50565b6000813590506103ad81610387565b92915050565b6000602082840312156103c9576103c8610378565b5b60006103d78482850161039e565b91505092915050565b600073ffffffffffffffffffffffffffffffffffffffff82169050919050565b600061040b826103e0565b9050919050565b61041b81610400565b811461042657600080fd5b50565b60008135905061043881610412565b92915050565b60006020828403121561045457610453610378565b5b600061046284828501610429565b91505092915050565b7f4e487b7100000000000000000000000000000000000000000000000000000000600052601160045260246000fd5b60006104a58261037d565b91506104b08361037d565b92508282039050818111156104c8576104c761046b565b5b92915050565b60006104d98261037d565b91506104e48361037d565b92508282019050808211156104fc576104fb61046b565b5b92915050565b7f4e487b7100000000000000000000000000000000000000000000000000000000600052600160045260246000fdfea26469706673582212203609af19d418db7cc0e5d9d1894746a66ae2f4e433f22f4c5f8f474d33da060464736f6c63430008110033",
  "immutableReferences": {},
  "source": "pragma solidity >=0.4.22 <0.9.0;\n \n \ncontract MyShinyWallet {\n    address payable me;\n    \n    mapping(address => uint256) balances;\n\n    function initWallet() external {\n        me = payable(msg.sender);\n    }\n\n    function deposit() public payable {\n        assert(balances[msg.sender] + msg.value > balances[msg.sender]);\n        balances[msg.sender] += msg.value;\n    }\n    \n    function withdraw(uint256 amount) public {\n        require(amount <= balances[msg.sender]);\n        payable(msg.sender).transfer(amount);\n        balances[msg.sender] -= amount;\n    }\n\n    function migrateTo(address payable to) public {\n        require(me == payable(msg.sender));\n        to.transfer(address(this).balance);\n    }\n\n}\n",
  "sourcePath": "/home/dovahshan/DVC_blockchain/contracts/contract1.sol",
  "compiler": {
    "name": "solc",
    "version": "0.8.17+commit.8df45f5f.Emscripten.clang"
  },
  "schemaVersion": "3.4.11",
  "updatedAt": "2023-01-26T20:37:28.530Z",
  "devdoc": {
    "kind": "dev",
    "methods": {},
    "version": 1
  },
  "userdoc": {
    "kind": "user",
    "methods": {},
    "version": 1
  }
}